{
  "address": "0x4963C540103B74a4EB897EB3050173D71E455Eef",
  "abi": [
    {
      "inputs": [],
      "stateMutability": "nonpayable",
      "type": "constructor"
    },
    {
      "anonymous": false,
      "inputs": [
        {
          "indexed": true,
          "internalType": "address",
          "name": "_address",
          "type": "address"
        },
        {
          "indexed": false,
          "internalType": "uint256",
          "name": "_value",
          "type": "uint256"
        }
      ],
      "name": "Deposit",
      "type": "event"
    },
    {
      "anonymous": false,
      "inputs": [
        {
          "indexed": true,
          "internalType": "bytes32",
          "name": "role",
          "type": "bytes32"
        },
        {
          "indexed": true,
          "internalType": "bytes32",
          "name": "previousAdminRole",
          "type": "bytes32"
        },
        {
          "indexed": true,
          "internalType": "bytes32",
          "name": "newAdminRole",
          "type": "bytes32"
        }
      ],
      "name": "RoleAdminChanged",
      "type": "event"
    },
    {
      "anonymous": false,
      "inputs": [
        {
          "indexed": true,
          "internalType": "bytes32",
          "name": "role",
          "type": "bytes32"
        },
        {
          "indexed": true,
          "internalType": "address",
          "name": "account",
          "type": "address"
        },
        {
          "indexed": true,
          "internalType": "address",
          "name": "sender",
          "type": "address"
        }
      ],
      "name": "RoleGranted",
      "type": "event"
    },
    {
      "anonymous": false,
      "inputs": [
        {
          "indexed": true,
          "internalType": "bytes32",
          "name": "role",
          "type": "bytes32"
        },
        {
          "indexed": true,
          "internalType": "address",
          "name": "account",
          "type": "address"
        },
        {
          "indexed": true,
          "internalType": "address",
          "name": "sender",
          "type": "address"
        }
      ],
      "name": "RoleRevoked",
      "type": "event"
    },
    {
      "anonymous": false,
      "inputs": [
        {
          "indexed": true,
          "internalType": "address",
          "name": "_address",
          "type": "address"
        },
        {
          "indexed": false,
          "internalType": "uint256",
          "name": "_value",
          "type": "uint256"
        }
      ],
      "name": "Withdraw",
      "type": "event"
    },
    {
      "inputs": [],
      "name": "DEFAULT_ADMIN_ROLE",
      "outputs": [
        {
          "internalType": "bytes32",
          "name": "",
          "type": "bytes32"
        }
      ],
      "stateMutability": "view",
      "type": "function"
    },
    {
      "inputs": [],
      "name": "TEAM_MEMBER_ROLE",
      "outputs": [
        {
          "internalType": "bytes32",
          "name": "",
          "type": "bytes32"
        }
      ],
      "stateMutability": "view",
      "type": "function"
    },
    {
      "inputs": [
        {
          "internalType": "address",
          "name": "_account",
          "type": "address"
        }
      ],
      "name": "addTeamMember",
      "outputs": [],
      "stateMutability": "nonpayable",
      "type": "function"
    },
    {
      "inputs": [
        {
          "internalType": "address",
          "name": "",
          "type": "address"
        }
      ],
      "name": "depositors",
      "outputs": [
        {
          "internalType": "uint256",
          "name": "value",
          "type": "uint256"
        },
        {
          "internalType": "bool",
          "name": "hasDeposited",
          "type": "bool"
        }
      ],
      "stateMutability": "view",
      "type": "function"
    },
    {
      "inputs": [],
      "name": "distributeRewards",
      "outputs": [],
      "stateMutability": "payable",
      "type": "function"
    },
    {
      "inputs": [
        {
          "internalType": "bytes32",
          "name": "role",
          "type": "bytes32"
        }
      ],
      "name": "getRoleAdmin",
      "outputs": [
        {
          "internalType": "bytes32",
          "name": "",
          "type": "bytes32"
        }
      ],
      "stateMutability": "view",
      "type": "function"
    },
    {
      "inputs": [
        {
          "internalType": "bytes32",
          "name": "role",
          "type": "bytes32"
        },
        {
          "internalType": "address",
          "name": "account",
          "type": "address"
        }
      ],
      "name": "grantRole",
      "outputs": [],
      "stateMutability": "nonpayable",
      "type": "function"
    },
    {
      "inputs": [
        {
          "internalType": "bytes32",
          "name": "role",
          "type": "bytes32"
        },
        {
          "internalType": "address",
          "name": "account",
          "type": "address"
        }
      ],
      "name": "hasRole",
      "outputs": [
        {
          "internalType": "bool",
          "name": "",
          "type": "bool"
        }
      ],
      "stateMutability": "view",
      "type": "function"
    },
    {
      "inputs": [
        {
          "internalType": "address",
          "name": "_account",
          "type": "address"
        }
      ],
      "name": "removeTeamMember",
      "outputs": [],
      "stateMutability": "nonpayable",
      "type": "function"
    },
    {
      "inputs": [
        {
          "internalType": "bytes32",
          "name": "role",
          "type": "bytes32"
        },
        {
          "internalType": "address",
          "name": "account",
          "type": "address"
        }
      ],
      "name": "renounceRole",
      "outputs": [],
      "stateMutability": "nonpayable",
      "type": "function"
    },
    {
      "inputs": [
        {
          "internalType": "bytes32",
          "name": "role",
          "type": "bytes32"
        },
        {
          "internalType": "address",
          "name": "account",
          "type": "address"
        }
      ],
      "name": "revokeRole",
      "outputs": [],
      "stateMutability": "nonpayable",
      "type": "function"
    },
    {
      "inputs": [
        {
          "internalType": "bytes4",
          "name": "interfaceId",
          "type": "bytes4"
        }
      ],
      "name": "supportsInterface",
      "outputs": [
        {
          "internalType": "bool",
          "name": "",
          "type": "bool"
        }
      ],
      "stateMutability": "view",
      "type": "function"
    },
    {
      "inputs": [],
      "name": "totalRewards",
      "outputs": [
        {
          "internalType": "uint256",
          "name": "",
          "type": "uint256"
        }
      ],
      "stateMutability": "view",
      "type": "function"
    },
    {
      "inputs": [
        {
          "internalType": "uint256",
          "name": "",
          "type": "uint256"
        }
      ],
      "name": "users",
      "outputs": [
        {
          "internalType": "address",
          "name": "",
          "type": "address"
        }
      ],
      "stateMutability": "view",
      "type": "function"
    },
    {
      "inputs": [],
      "name": "withdraw",
      "outputs": [],
      "stateMutability": "nonpayable",
      "type": "function"
    },
    {
      "stateMutability": "payable",
      "type": "receive"
    }
  ],
  "transactionHash": "0xd15ad15b863719861fe483f9a1ccec0df7f59b232f695890c30ed2ea8d70834e",
  "args": [],
  "numDeployments": 1,
  "solcInputHash": "6788942d45c5bd52216f27af53dc3d5f",
  "bytecode": "0x608060405234801561001057600080fd5b5061001c60003361004b565b6100467f8e686555a55ab6b23aa445db999c535d72a040cce9fe8b191d10aa2671cf528e3361004b565b6100f7565b6100558282610059565b5050565b6000828152602081815260408083206001600160a01b038516845290915290205460ff16610055576000828152602081815260408083206001600160a01b03851684529091529020805460ff191660011790556100b33390565b6001600160a01b0316816001600160a01b0316837f2f8788117e7eff1d82e926ec794901d17c78024a50270940304540a733656f0d60405160405180910390a45050565b610d6d806101066000396000f3fe6080604052600436106100ec5760003560e01c80633ccfd60b1161008a57806391d148541161005957806391d1485414610363578063a217fddf14610383578063d547741f14610398578063eed75f6d146103b857600080fd5b80633ccfd60b146103045780633eb2b5ad146103195780636b9cbe11146103395780636f4a2cd01461035b57600080fd5b8063248a9ca3116100c6578063248a9ca31461025c5780632f2ff15d1461028c57806336568abe146102ac578063365b98b2146102cc57600080fd5b806301ffc9a7146101e15780630e15561a1461021657806314eba0261461023a57600080fd5b366101dc573360009081526003602052604090206001015460ff1661014e57600280546001810182556000919091527f405787fa12a823e0f2b7631cc41b3ba8828b3321ca811111fa75cd3aa3bb5ace0180546001600160a01b031916331790555b336000908152600360205260408120805434929061016d908490610c1a565b90915550503360009081526003602052604081206001908101805460ff19168217905580543492906101a0908490610c1a565b909155505060405134815233907fe1fffcc4923d04b559f4d29a8bfc6cda04eb5b0d3c460751c2402c5c5cc9109c9060200160405180910390a2005b600080fd5b3480156101ed57600080fd5b506102016101fc366004610b48565b610404565b60405190151581526020015b60405180910390f35b34801561022257600080fd5b5061022c60015481565b60405190815260200161020d565b34801561024657600080fd5b5061025a610255366004610ae8565b61043b565b005b34801561026857600080fd5b5061022c610277366004610b03565b60009081526020819052604090206001015490565b34801561029857600080fd5b5061025a6102a7366004610b1c565b610456565b3480156102b857600080fd5b5061025a6102c7366004610b1c565b610481565b3480156102d857600080fd5b506102ec6102e7366004610b03565b610504565b6040516001600160a01b03909116815260200161020d565b34801561031057600080fd5b5061025a61052e565b34801561032557600080fd5b5061025a610334366004610ae8565b61065d565b34801561034557600080fd5b5061022c600080516020610d1883398151915281565b61025a610675565b34801561036f57600080fd5b5061020161037e366004610b1c565b61078d565b34801561038f57600080fd5b5061022c600081565b3480156103a457600080fd5b5061025a6103b3366004610b1c565b6107b6565b3480156103c457600080fd5b506103ef6103d3366004610ae8565b6003602052600090815260409020805460019091015460ff1682565b6040805192835290151560208301520161020d565b60006001600160e01b03198216637965db0b60e01b148061043557506301ffc9a760e01b6001600160e01b03198316145b92915050565b610453600080516020610d18833981519152826107b6565b50565b60008281526020819052604090206001015461047281336107dc565b61047c8383610840565b505050565b6001600160a01b03811633146104f65760405162461bcd60e51b815260206004820152602f60248201527f416363657373436f6e74726f6c3a2063616e206f6e6c792072656e6f756e636560448201526e103937b632b9903337b91039b2b63360891b60648201526084015b60405180910390fd5b61050082826108c4565b5050565b6002818154811061051457600080fd5b6000918252602090912001546001600160a01b0316905081565b336000908152600360205260409020548061058b5760405162461bcd60e51b815260206004820152601e60248201527f4e6f206465706f7369747320666f756e6420666f72207769746864726177000060448201526064016104ed565b336000818152600360205260408082208290555190919083908381818185875af1925050503d80600081146105dc576040519150601f19603f3d011682016040523d82523d6000602084013e6105e1565b606091505b50509050806106245760405162461bcd60e51b815260206004820152600f60248201526e151c985b9cd9995c8819985a5b1959608a1b60448201526064016104ed565b60405182815233907f884edad9ce6fa2440d8a54cc123490eb96d2768479d49ff9c7366125a94243649060200160405180910390a25050565b610453600080516020610d1883398151915282610456565b600080516020610d1883398151915261068e81336107dc565b6000600154116106e05760405162461bcd60e51b815260206004820152601860248201527f4e6f207265776172647320746f2064697374726962757465000000000000000060448201526064016104ed565b60005b6002548110156105005760006002828154811061070257610702610ceb565b60009182526020808320909101546001546001600160a01b03909116808452600390925260408320549193509061073a903490610c54565b6107449190610c32565b6001600160a01b038316600090815260036020526040812080549293508392909190610771908490610c1a565b925050819055505050808061078590610cba565b9150506106e3565b6000918252602082815260408084206001600160a01b0393909316845291905290205460ff1690565b6000828152602081905260409020600101546107d281336107dc565b61047c83836108c4565b6107e6828261078d565b610500576107fe816001600160a01b03166014610929565b610809836020610929565b60405160200161081a929190610b72565b60408051601f198184030181529082905262461bcd60e51b82526104ed91600401610be7565b61084a828261078d565b610500576000828152602081815260408083206001600160a01b03851684529091529020805460ff191660011790556108803390565b6001600160a01b0316816001600160a01b0316837f2f8788117e7eff1d82e926ec794901d17c78024a50270940304540a733656f0d60405160405180910390a45050565b6108ce828261078d565b15610500576000828152602081815260408083206001600160a01b0385168085529252808320805460ff1916905551339285917ff6391f5c32d9c69d2a47ea670b442974b53935d1edc7fd64eb21e047a839171b9190a45050565b60606000610938836002610c54565b610943906002610c1a565b67ffffffffffffffff81111561095b5761095b610d01565b6040519080825280601f01601f191660200182016040528015610985576020820181803683370190505b509050600360fc1b816000815181106109a0576109a0610ceb565b60200101906001600160f81b031916908160001a905350600f60fb1b816001815181106109cf576109cf610ceb565b60200101906001600160f81b031916908160001a90535060006109f3846002610c54565b6109fe906001610c1a565b90505b6001811115610a76576f181899199a1a9b1b9c1cb0b131b232b360811b85600f1660108110610a3257610a32610ceb565b1a60f81b828281518110610a4857610a48610ceb565b60200101906001600160f81b031916908160001a90535060049490941c93610a6f81610ca3565b9050610a01565b508315610ac55760405162461bcd60e51b815260206004820181905260248201527f537472696e67733a20686578206c656e67746820696e73756666696369656e7460448201526064016104ed565b9392505050565b80356001600160a01b0381168114610ae357600080fd5b919050565b600060208284031215610afa57600080fd5b610ac582610acc565b600060208284031215610b1557600080fd5b5035919050565b60008060408385031215610b2f57600080fd5b82359150610b3f60208401610acc565b90509250929050565b600060208284031215610b5a57600080fd5b81356001600160e01b031981168114610ac557600080fd5b7f416363657373436f6e74726f6c3a206163636f756e7420000000000000000000815260008351610baa816017850160208801610c73565b7001034b99036b4b9b9b4b733903937b6329607d1b6017918401918201528351610bdb816028840160208801610c73565b01602801949350505050565b6020815260008251806020840152610c06816040850160208701610c73565b601f01601f19169190910160400192915050565b60008219821115610c2d57610c2d610cd5565b500190565b600082610c4f57634e487b7160e01b600052601260045260246000fd5b500490565b6000816000190483118215151615610c6e57610c6e610cd5565b500290565b60005b83811015610c8e578181015183820152602001610c76565b83811115610c9d576000848401525b50505050565b600081610cb257610cb2610cd5565b506000190190565b6000600019821415610cce57610cce610cd5565b5060010190565b634e487b7160e01b600052601160045260246000fd5b634e487b7160e01b600052603260045260246000fd5b634e487b7160e01b600052604160045260246000fdfe8e686555a55ab6b23aa445db999c535d72a040cce9fe8b191d10aa2671cf528ea26469706673582212206c16729b88278339c2c35f5ca01a689d606d012f3e792df6a29607733dee961964736f6c63430008070033",
  "devdoc": {
    "kind": "dev",
    "methods": {
      "getRoleAdmin(bytes32)": {
        "details": "Returns the admin role that controls `role`. See {grantRole} and {revokeRole}. To change a role's admin, use {_setRoleAdmin}."
      },
      "grantRole(bytes32,address)": {
        "details": "Grants `role` to `account`. If `account` had not been already granted `role`, emits a {RoleGranted} event. Requirements: - the caller must have ``role``'s admin role."
      },
      "hasRole(bytes32,address)": {
        "details": "Returns `true` if `account` has been granted `role`."
      },
      "renounceRole(bytes32,address)": {
        "details": "Revokes `role` from the calling account. Roles are often managed via {grantRole} and {revokeRole}: this function's purpose is to provide a mechanism for accounts to lose their privileges if they are compromised (such as when a trusted device is misplaced). If the calling account had been revoked `role`, emits a {RoleRevoked} event. Requirements: - the caller must be `account`."
      },
      "revokeRole(bytes32,address)": {
        "details": "Revokes `role` from `account`. If `account` had been granted `role`, emits a {RoleRevoked} event. Requirements: - the caller must have ``role``'s admin role."
      },
      "supportsInterface(bytes4)": {
        "details": "See {IERC165-supportsInterface}."
      }
    },
    "version": 1
  },
  "userdoc": {
    "kind": "user",
    "methods": {},
    "version": 1
  },
  "storageLayout": {
    "storage": [
      {
        "astId": 24,
        "contract": "contracts/ETHPool.sol:ETHPool",
        "label": "_roles",
        "offset": 0,
        "slot": "0",
        "type": "t_mapping(t_bytes32,t_struct(RoleData)19_storage)"
      },
      {
        "astId": 649,
        "contract": "contracts/ETHPool.sol:ETHPool",
        "label": "totalRewards",
        "offset": 0,
        "slot": "1",
        "type": "t_uint256"
      },
      {
        "astId": 652,
        "contract": "contracts/ETHPool.sol:ETHPool",
        "label": "users",
        "offset": 0,
        "slot": "2",
        "type": "t_array(t_address)dyn_storage"
      },
      {
        "astId": 662,
        "contract": "contracts/ETHPool.sol:ETHPool",
        "label": "depositors",
        "offset": 0,
        "slot": "3",
        "type": "t_mapping(t_address,t_struct(DepositDetails)657_storage)"
      }
    ],
    "types": {
      "t_address": {
        "encoding": "inplace",
        "label": "address",
        "numberOfBytes": "20"
      },
      "t_array(t_address)dyn_storage": {
        "base": "t_address",
        "encoding": "dynamic_array",
        "label": "address[]",
        "numberOfBytes": "32"
      },
      "t_bool": {
        "encoding": "inplace",
        "label": "bool",
        "numberOfBytes": "1"
      },
      "t_bytes32": {
        "encoding": "inplace",
        "label": "bytes32",
        "numberOfBytes": "32"
      },
      "t_mapping(t_address,t_bool)": {
        "encoding": "mapping",
        "key": "t_address",
        "label": "mapping(address => bool)",
        "numberOfBytes": "32",
        "value": "t_bool"
      },
      "t_mapping(t_address,t_struct(DepositDetails)657_storage)": {
        "encoding": "mapping",
        "key": "t_address",
        "label": "mapping(address => struct ETHPool.DepositDetails)",
        "numberOfBytes": "32",
        "value": "t_struct(DepositDetails)657_storage"
      },
      "t_mapping(t_bytes32,t_struct(RoleData)19_storage)": {
        "encoding": "mapping",
        "key": "t_bytes32",
        "label": "mapping(bytes32 => struct AccessControl.RoleData)",
        "numberOfBytes": "32",
        "value": "t_struct(RoleData)19_storage"
      },
      "t_struct(DepositDetails)657_storage": {
        "encoding": "inplace",
        "label": "struct ETHPool.DepositDetails",
        "members": [
          {
            "astId": 654,
            "contract": "contracts/ETHPool.sol:ETHPool",
            "label": "value",
            "offset": 0,
            "slot": "0",
            "type": "t_uint256"
          },
          {
            "astId": 656,
            "contract": "contracts/ETHPool.sol:ETHPool",
            "label": "hasDeposited",
            "offset": 0,
            "slot": "1",
            "type": "t_bool"
          }
        ],
        "numberOfBytes": "64"
      },
      "t_struct(RoleData)19_storage": {
        "encoding": "inplace",
        "label": "struct AccessControl.RoleData",
        "members": [
          {
            "astId": 16,
            "contract": "contracts/ETHPool.sol:ETHPool",
            "label": "members",
            "offset": 0,
            "slot": "0",
            "type": "t_mapping(t_address,t_bool)"
          },
          {
            "astId": 18,
            "contract": "contracts/ETHPool.sol:ETHPool",
            "label": "adminRole",
            "offset": 0,
            "slot": "1",
            "type": "t_bytes32"
          }
        ],
        "numberOfBytes": "64"
      },
      "t_uint256": {
        "encoding": "inplace",
        "label": "uint256",
        "numberOfBytes": "32"
      }
    }
  }
}